:0C00000024C0FECFFDCFFCCFFBCFFACF19
:10000C00F9CFF8CFF7CFF6CFF5CFF4CFF3CFF2CFC0
:10001C00F1CFF0CFEFCFEECFEDCF1027E803640098
:10002C000A00010000100001100001006974733A0D
:10003C002025630080C00200600140000000F8949D
:10004C00EE27ECBBF1E0FBBFEBBFE5BFF8E1F1BD88
:10005C00E1BD8DE0A2E0BB27ED938A95E9F780E046
:10006C0094E0A0E6ED930197E9F7E2E4F0E08591E6
:10007C009591009761F0A591B59105901590BF01F0
:10008C00F00105900D920197E1F7FB01F0CFEFE540
:10009C00EDBFE4E0EEBFC0E6D1E095C01A93EFE00F
:1000AC00E4BBE5BBE0EFE2BBE1E06E2EE1E0E61580
:1000BC0009F086C0EFEF5E2E10E0143008F07FC020
:1000CC00CDD2CFD2E5BBCAD2D1D209F476C0D4D22C
:1000DC00CDD209F472C0E52DE07F1E2EC2D2EF7096
:1000EC00E1294E2EEFEFE51521F0E0B3EF605E2E27
:1000FC00F9CFC2D2E42DF0E0EE3EA0E0FA0711F405
:10010C00E1E359C0ED3EA0E0FA0711F4E4E353C07B
:10011C00EB3EA0E0FA0711F4E7E34DC0E73EA0E0A8
:10012C00FA0711F4EAE247C0EE3DA0E0FA0711F439
:10013C00E2E341C0ED3DA0E0FA0711F4E5E33BC07A
:10014C00EB3DA0E0FA0711F4E8E335C0E73DA0E091
:10015C00FA0711F4E0E32FC0EE3BA0E0FA0711F42C
:10016C00E3E329C0ED3BA0E0FA0711F4E6E323C07A
:10017C00EB3BA0E0FA0711F4E9E31DC0E73BA0E07C
:10018C00FA0711F4E3E217C0EE37A0E0FA0711F416
:10019C00EFE211C0ED37A0E0FA0761F0EB37A0E019
:1001AC00FA0711F4EDE207C0E737A0E0FA0711F403
:1001BC00EBE201C0E8E57E2E66241F5F7ECF76CF92
:1001CC00E72D19910895E0E0E8BBE7BBE5BBE4BB84
:1001DC00E2BBE1BBE3BFE2BFEFBDEEBDEDBDECBDED
:1001EC00E7BDE6BDEBBDEABDE9BDE8BDE2BDE5BDE1
:1001FC00E4BDE3BDE5BFE9BFEAB9E0E8E8B9E0E09A
:10020C00E0BFE6B9EDB9E6BFA0E179D0659746DF6E
:10021C00E883FE01319633D2E8E3F0E030D2EC8192
:10022C00FF276627772791D284E0D7D12896DE0165
:10023C00119655D0A4E626D26596E8CFFFCFAA93A7
:10024C00E8B3E07FAE2FE881E295EF70EA2BE8BBD4
:10025C0085E08A95F1F7C69A8DE08A95F1F7C698F4
:10026C008DE08A95F1F771C0AA93A881E8DFE88147
:10027C00E295E883A881E3DF85E88A95F1F765C00C
:10028C00AA93E881F0E0E05AFE4FE081A981AE0F1D
:10029C00EBDF9980888022960895A2E0E5DFA3E049
:1002AC00F1D1ACE0E1DFA1E0DFDFA3E0EBD1E0E0F6
:1002BC008E2E9E2E0895AA93A881AA3011F09B141D
:1002CC0040F0E0E0EA938394A82DDADFA881AA300D
:1002DC00E1F19394C49AA881C7DFC49836C0D4D1F5
:1002EC001A93A981BA81ED91A983BA831E2FE030AC
:1002FC0019F0A12FE0DFF5CF188123960895AA936A
:10030C00E7B3EF60E7BBBE9ABC9ABD9AC698C49897
:10031C00C598B880E881E058E0936201E881E05428
:10032C00E0936301A9D1B3D1B2D1B1D1A0E287DFFF
:10033C0088EC90E00197F1F7A8E296DFA4E094DF57
:10034C00A5E892DFA6E090DFA8DF219608959CD166
:10035C0005D2A4D11296F1D13097F1F09FD1A1D151
:10036C008F01309761F00230E0E01E07A0F0F80139
:10037C0031978F01AA81BB811496ED93FC938ED19A
:10038C00129692D13197AC81A08388D1D6D1FF231C
:10039C0012F084D189D105C081D1EFEFFFEFED933D
:1003AC00FC93E3D1259608956FD12697D3D110E015
:1003BC00AC85BD85E0E0F0E0ED93FC93EA89FB8928
:1003CC003196EA8BFB8B3197E4912E2FE03009F4B8
:1003DC00FEC0E12FE03031F4253211F411E001C000
:1003EC0069D1F4C0E130A1F4253211F463D1EDC030
:1003FC0012E040E000E02D3211F401E0E7C02B32B6
:10040C0011F44BE2E3C0203211F440E2DFC002C031
:10041C00E23039F450E013E0203311F40068D6C018
:10042C0003C0E33009F0D2C0203310F02A3308F0B7
:10043C0007C0AAE05A9F502DE22FE0535E0FC6C0B2
:10044C00E22FE33639F43DD13FD13BD1A481AA93BD
:10045C003FD1BBC0E33731F441D142D144D1E7D0D5
:10046C001E2F08C0E03751F439D13AD13CD1EAD033
:10047C001E2F086002600F7730E02EC0E43611F0BA
:10048C00E93611F4046002C0E53729F4E6E2F0E045
:10049C002FD115E00BC0E83511F4086003C0E83724
:1004AC0009F093C0E0E3F0E023D114E002FF11C0A7
:1004BC0015D116D120D1AB85AA232AF4EA85FB8568
:1004CC0030D119D14DE2403011F01F5F01C00B7FCC
:1004DC0003C004D105D10FD100FD10C0151770F465
:1004EC0007FF08C002FF04C00B7F242F115001C06E
:1004FC0020E301C020E2DED05150F0CF312F01FFBC
:10050C0015C0303091F003FF05C0EE81FF812591BD
:10051C00EFD005C0AE81BF812D91AE83BF83CAD011
:10052C00503009F051503150ECCF46C020E3EE81F1
:10053C00FF8107D1E887F987EE81FF813296D8D009
:10054C00E885F985AA85BB85AE17BF0748F02F5FF4
:10055C00A885B985EA85FB85EA1BFB0BCCD0F0CFCF
:10056C002A3328F003FF02C0295F01C0295D04FD76
:10057C0019C0213320F4A885B985119709F409C055
:10058C00531710F000FF01C011C020E207FF0AC092
:10059C0020E3006102FF06C00B7F4A9399D05030D4
:1005AC0009F0515087D0503009F051503150A88586
:1005BC00B985129708F0BACF00FF07C0503029F068
:1005CC005150E0E2EA9384D0F9CF10E0F7CEAC853D
:1005DC00BD85B3D0C6D064960895FF92F82E2697A9
:1005EC00BBD08CD0309719F4EFEFFFEF1CC0DE01BD
:1005FC00169693D08D0182D07BD0E0E0E887E98716
:10060C00DE011A968AD099D03AD01A930A93EDEA61
:10061C00F1E035D0DE011A96C7DE9F01AE81BF81B5
:10062C00E0E0EC93F9019FD02A96FF9008952CD02E
:10063C00A991B991EE27FF276D91662311F03196A0
:10064C00FBCF089521D0AA27BB27E991F9910590FA
:10065C00002011F01196FBCFFD010895A1E0B0E050
:10066C0052C0E12FA1E061D0E0950895E0B3EF60B6
:10067C005E2EEFEFE5150895A4E1B0E044C0FA93C7
:10068C00EA930895B0E03FC0BA93AA930895A0E30B
:10069C00D6DD88EC90E00197F1F70895AA81BB8133
:1006AC00089514964AD00895ED91FD913196FE93DC
:1006BC00EE9308952A93AD85BE85EF85F88909954B
:1006CC000895E889F98908953497E88BF98B089592
:1006DC00AD85BE85EF85F88909950895F2DFF4CFD5
:1006EC00A889B989DECFEE83FF83AE81BF810895DF
:1006FC00EE83FF830895EA87FB870895DE011C963D
:10070C000CD01BD00895109639F080ED97E001972E
:10071C00F1F7A8951197C9F708950024AF0DB01DF6
:10072C000895F195E195F0400895EE230E2EEA2FF1
:10073C0019F0EE0F0A94E9F70895ED91FC911197D9
:10074C0008950590F491E02D08957A936A93FA93A5
:10075C00EA9308955A934A933A932A931A930A93D5
:10076C0008955D814C813B812A811981088108950E
:00000001FF
