S01200007761697465722D6176722E7372656310
S11300000C942A000C943F000C943F000C943F0085
S11300100C943F000C943F000C943F000C943F0060
S11300200C943F000C943F000C943F000C943F0050
S11300300C943F000C943F000C943F000C943F0040
S11300400C943F000C943F000C943F000C943F0030
S11300500C943F0011241FBECFE5D8E0DEBFCDBF16
S113006010E0A0E6B0E0E2E7F1E002C005900D92F6
S1130070AA37B107D9F70E948E000C94B7000C94EC
S1130080000088BBC298C39A8FE99FE00197F1F7FB
S113009000C00000C3980895CF93C82F807F0E94AA
S11300A041008C2F8295807F0E944100CF9108955A
S11300B082E00E944C0088E20E944C008CE00E9486
S11300C04C0086E00E944C0083E80E944C00089596
S11300D088BBC29AC39A8FE99FE00197F1F700C0E9
S11300E00000C3980895CF93C82F807F0E946800B2
S11300F08C2F8295807F0E946800CF910895CF93C2
S1130100DF93EC018881882331F021960E947300EB
S113011089918111FBCFDF91CF9108958FEF87BB38
S11301200E94580080E690E00E947F0080EC0E94CC
S11301304C0088E690E00E947F002FEF80E792E079
S1130140215080409040E1F700C00000C0E1D0E0C1
S11301508CE10E944C002FEF89EF90E02150804009
S11301609040E1F700C00000219791F7EFCFF89499
S1050170FFCFBB
S113017257656C636F6D6500746F206F75722072C2
S10D01826573747572616E740000F9
S9030000FC
