:100000000C942A000C943F000C943F000C943F0089
:100010000C943F000C943F000C943F000C943F0064
:100020000C943F000C943F000C943F000C943F0054
:100030000C943F000C943F000C943F000C943F0044
:100040000C943F000C943F000C943F000C943F0034
:100050000C943F0011241FBECFE5D8E0DEBFCDBF1A
:1000600010E0A0E6B0E0E8E8F8E002C005900D92EC
:10007000A239B107D9F70E9405010C9442040C94EF
:100080000000CF93DF93CDB7DEB72C970FB6F8946F
:10009000DEBF0FBECDBF80EF8ABB8FEF8BBB8CE086
:1000A000E0E6F0E0DE01119601900D928A95E1F70D
:1000B0008BB38F708BBB89B38F708F30C9F789B3C7
:1000C0008F708F30E1F39FEE2FED3FEB9BBB89B339
:1000D0008F708F3061F42BBB89B38F708F3049F4F0
:1000E0003BBB89B38F708F3089F392E003C090E0FF
:1000F00001C091E08E3029F4FE01E90FF11D8181EC
:1001000012C08D3029F4FE01E90FF11D84810BC06E
:100110008B3029F4FE01E90FF11D878104C0FE0137
:10012000E90FF11D82852C960FB6F894DEBF0FBE45
:10013000CDBFDF91CF91089588BBC298C39A8FE954
:100140009FE00197F1F700C00000C3980895CF9396
:10015000C82F807F0E949C008C2F8295807F0E94F8
:100160009C00CF91089580EC0E94A700089581E043
:100170000E94A7000895CF93DF93C0E1D0E08CE107
:100180000E94A7008FE19EE40197F1F700C00000F4
:100190002197A9F70E94B700DF91CF91089582E0DF
:1001A0000E94A70088E20E94A7008CE00E94A7009E
:1001B00086E00E94A70083E80E94A700089588BBFC
:1001C000C29AC39A8FE99FE00197F1F700C000003F
:1001D000C3980895CF93C82F807F0E94DF008C2F93
:1001E0008295807F0E94DF00CF910895CF93DF93A7
:1001F000EC018881882331F021960E94EA008991E0
:100200008111FBCFDF91CF910895CF93DF93CDB7CD
:10021000DEB760970FB6F894DEBF0FBECDBF8FEF8D
:1002200087BB0E94CF008CE690E00E94F6000E94FF
:10023000B30084E790E00E94F6002FEF80E792E0A1
:10024000215080409040E1F700C000000E94BB00B8
:100250002FEF80E792E0215080409040E1F700C00E
:1002600000000F2EF5E8EF2EF0E0FF2EF02D8E01AE
:100270000F5F1F4F0E9441008823E1F31F928F936D
:10028000FF92EF921F930F930E945801C8010E94A2
:10029000F6008FE39CE90197F1F700C000000E948F
:1002A000BB000F900F900F900F900F900F90E2CF28
:1002B000AEE0B0E0EEE5F1E00C9419040D891E8982
:1002C00086E08C831A8309838FEF9FE79E838D835B
:1002D000AE01475E5F4F6F89788DCE0101960E9417
:1002E0007A01EF81F885E00FF11F10822E96E4E08D
:1002F0000C943504ABE0B0E0E0E8F1E00C940B04C2
:100300006C017B018A01FC0117821682838181FFC7
:10031000CCC1CE0101963C01F6019381F70193FD1A
:10032000859193FF81917F01882309F4BAC18532B9
:1003300039F493FD859193FF81917F01853229F4F2
:10034000B60190E00E947103E7CF912C212C312C53
:10035000FFE1F315D8F08B3279F038F4803279F080
:100360008332A1F4232D20611DC08D3261F08033D2
:1003700069F4232D216016C0832D8260382EE32D71
:10038000E4603E2E2AC0F32DF8601DC037FC2DC05E
:1003900020ED280F2A3040F08E32B9F436FC81C1AE
:1003A000232D2064322E19C036FE06C08AE0989EA6
:1003B000200D1124922E11C0EAE02E9E200D112452
:1003C000222EF32DF0623F2E08C08C3621F4832DAF
:1003D0008068382E02C0883641F4F70193FD85917C
:1003E00093FF81917F018111B3CF982F9F7D955409
:1003F000933028F40C5F1F4F9FE399830DC0833621
:1004000031F0833771F0833509F059C021C0F8010C
:10041000808189830E5F1F4F88248394912C530120
:1004200013C02801F2E04F0E511CF801A080B180EA
:1004300036FE03C0692D70E002C06FEF7FEFC5018B
:100440000E9466034C018201F32DFF773F2E16C0F8
:10045000280122E0420E511CF801A080B18036FE36
:1004600003C0692D70E002C06FEF7FEFC5010E94ED
:100470005B034C01F32DF0683F2E820133FC1BC05F
:10048000822D90E088169906B0F4B60180E290E0E3
:100490000E9471032A94F4CFF50137FC859137FE51
:1004A00081915F01B60190E00E94710321102A94AE
:1004B00021E0821A91088114910471F7E8C0843612
:1004C00011F0893641F5F80137FE07C0608171816E
:1004D000828193810C5F1F4F08C060817181072E5C
:1004E000000C880B990B0E5F1F4FF32DFF763F2EEC
:1004F00097FF09C090958095709561957F4F8F4FBC
:100500009F4FF0683F2E2AE030E0A3010E94AD0328
:10051000882E861845C0853731F4232D2F7EB22EC4
:100520002AE030E025C0932D997FB92E8F36C1F097
:1005300018F4883579F0B5C0803719F0883721F084
:10054000B0C0E92FE061BE2EB4FE0DC0FB2DF460FB
:10055000BF2E09C034FE0AC0292F2660B22E06C065
:1005600028E030E005C020E130E002C020E132E0C8
:10057000F801B7FE07C060817181828193810C5FB1
:100580001F4F06C06081718180E090E00E5F1F4FB9
:10059000A3010E94AD03882E8618FB2DFF773F2E06
:1005A00036FE0DC0232D2E7FA22E891458F434FE62
:1005B0000BC032FC09C0832D8E7EA82E05C0B82C3E
:1005C000A32C03C0B82C01C0B92CA4FE0FC0FE019F
:1005D000E80DF11D8081803321F49A2D997EA92E9A
:1005E00009C0A2FE06C0B394B39404C08A2D8678D5
:1005F00009F0B394A3FC11C0A0FE06C0B21488F4A5
:10060000280C922C9B180EC0B21460F4B60180E244
:1006100090E00E947103B394F7CFB21418F42B1832
:1006200002C0982C212CA4FE10C0B60180E390E0FB
:100630000E947103A2FE17C0A1FC03C088E790E0EE
:1006400002C088E590E0B6010CC08A2D867859F08A
:10065000A1FE02C08BE201C080E2A7FC8DE2B601E0
:1006600090E00E947103891438F4B60180E390E0B1
:100670000E9471039A94F7CF8A94F301E80DF11D5B
:100680008081B60190E00E9471038110F5CF222095
:1006900009F442CEB60180E290E00E9471032A94F0
:1006A000F6CFF6018681978102C08FEF9FEF2B96E0
:1006B000E2E10C942704FC010590615070400110A8
:1006C000D8F7809590958E0F9F1F0895FC0161507B
:1006D000704001900110D8F7809590958E0F9F1F64
:1006E00008950F931F93CF93DF93FB01238121FD87
:1006F00003C08FEF9FEF2CC022FF16C046815781A9
:10070000248135814217530744F4A081B1819D01B2
:100710002F5F3F4F318320838C93268137812F5F5A
:100720003F4F3783268314C08B01EC01FB0100840B
:10073000F185E02D0995892BE1F6D80116968D916A
:100740009C911797019617969C938E931697CE01BE
:10075000DF91CF911F910F910895FA01AA272830B8
:1007600051F1203181F1E8946F936E7F6E5F7F4F7E
:100770008F4F9F4FAF4FB1E03ED0B4E03CD0670FFA
:10078000781F891F9A1FA11D680F791F8A1F911D4D
:10079000A11D6A0F711D811D911DA11D20D009F49D
:1007A00068943F912AE0269F11243019305D3193DF
:1007B000DEF6CF010895462F4770405D4193B3E0C8
:1007C0000FD0C9F7F6CF462F4F70405D4A3318F06F
:1007D000495D31FD4052419302D0A9F7EACFB4E020
:1007E000A6959795879577956795BA95C9F70097D8
:1007F0006105710508959B01AC010A2E0694579579
:10080000479537952795BA95C9F7620F731F841FCF
:10081000951FA01D08952F923F924F925F926F9265
:100820007F928F929F92AF92BF92CF92DF92EF9280
:10083000FF920F931F93CF93DF93CDB7DEB7CA1B01
:10084000DB0B0FB6F894DEBF0FBECDBF09942A882C
:10085000398848885F846E847D848C849B84AA84D4
:10086000B984C884DF80EE80FD800C811B81AA8161
:10087000B981CE0FD11D0FB6F894DEBF0FBECDBF2C
:08088000ED010895F894FFCF8B
:100888003132333435363738392A302357656C637B
:100898006F6D6500746F206F757220726573747563
:1008A80072616E7400707265737365643A202563B3
:0208B80000003E
:00000001FF
