:100000000C942A000C940C010C9447000C944700AB
:100010000C9447000C9447000C9447000C94470044
:100020000C9447000C9447000C9447000C94470034
:100030000C9447000C9447000C9447000C94470024
:100040000C9447000C9447000C9447000C94470014
:100050000C94470011241FBECFE5D8E0DEBFCDBF12
:1000600011E0A0E6B0E0EEEEF9E002C005900D92DE
:10007000A036B107D9F721E0A0E6B1E001C01D929A
:10008000A436B207E1F70E94BF010C94F5040C946A
:100090000000CF93DF93CDB7DEB768970FB6F89423
:1000A000DEBF0FBECDBF80EF8ABB8FEF8BBB88E179
:1000B000E0E6F0E0DE01119601900D928A95E1F7FD
:1000C0008BB38F708BBB89B38F708F30C9F789B3B7
:1000D0008F708F30E1F39FEE2FED3FEB9BBB89B329
:1000E0008F708F3061F42BBB89B38F708F3049F4E0
:1000F0003BBB89B38F708F3089F3E2E003C0E0E04F
:1001000001C0E1E08E3041F4F0E0EE0FFF1FEC0F94
:10011000FD1F818192811EC08D3049F4F0E033963D
:10012000EE0FFF1FEC0FFD1F8181928113C08B30FA
:1001300049F4F0E03696EE0FFF1FEC0FFD1F8181B2
:10014000928108C0F0E03996EE0FFF1FEC0FFD1F03
:100150008181928168960FB6F894DEBF0FBECDBF45
:10016000DF91CF91089588BBC298C39A8FE99FE031
:100170000197F1F700C00000C3980895CF93C82FEE
:10018000807F0E94B3008C2F8295807F0E94B300F5
:10019000CF91089580EC0E94BE00089580E80E94EF
:1001A000BE00089581E00E94BE00089582E00E9492
:1001B000BE0088E20E94BE008CE00E94BE0086E085
:1001C0000E94BE0083E80E94BE00089588BBC29AC8
:1001D000C39A8FE99FE00197F1F700C00000C39830
:1001E0000895CF93C82F807F0E94E6008C2F8295C0
:1001F000807F0E94E600CF910895CF93DF93EC01BA
:100200008881882331F021960E94F1008991811123
:10021000FBCFDF91CF9108951F920F920FB60F92EF
:1002200011240F931F932F933F934F935F936F93DB
:100230007F938F939F93AF93BF93EF93FF93CF934E
:10024000DF93CDB7DEB76097DEBFCDBF809162018F
:10025000909163018930910549F40E94D20088E7AA
:1002600090E00E94FD00109261015BC00B9799F431
:100270000E94D20084E890E00E94FD0081E088BBEB
:100280002FEF89EF90E0215080409040E1F700C0CF
:10029000000018BA46C080916101811142C00E94DD
:1002A000D2000E94CE002091620130916301A90129
:1002B000440F551FC901880F991F880F991F880F78
:1002C000991F840F951F88519F4F9F938F93F9011A
:1002D000E452FF4F80811F928F938DE890E09F93AF
:1002E0008F938E010F5F1F4F1F930F930E940B027E
:1002F000C8010E94FD000E94CA0084E990E00E94AB
:10030000FD008FE39CE90197F1F700C000000E9417
:10031000CE0081E0809361010FB6F894DEBF0FBE7E
:10032000CDBF60960FB6F894DEBF0FBECDBFDF9194
:10033000CF91FF91EF91BF91AF919F918F917F915D
:100340006F915F914F913F912F911F910F910F905E
:100350000FBE0F901F90189584EA86BF06B607FE61
:10036000FDCF089583B984E886BF06B607FEFDCFAA
:10037000089511B887E480B984E086BF08958FEFAF
:1003800087BB0E94D60082EC90E00E94FD000E9494
:10039000CA008AEC90E00E94FD002FEF80E792E017
:1003A000215080409040E1F700C000000E94D20040
:1003B00078940E94B9010E94AC0180ED0E94B201C4
:1003C00080EF0E94B20184E986BF2FEF80E792E0C0
:1003D000215080409040E1F700C000000E94D20010
:1003E000C0E40E9449009093630180936201892BCD
:1003F00029F080916001811101C0CBBF1BBE10921A
:1004000060012FEF89EF90E0215080409040E1F7AC
:1004100000C00000E6CFAEE0B0E0E1E1F2E00C9415
:10042000CC040D891E8986E08C831A8309838FEFA3
:100430009FE79E838D83AE01475E5F4F6F89788D06
:10044000CE0101960E942D02EF81F885E00FF11F89
:1004500010822E96E4E00C94E804ABE0B0E0E3E315
:10046000F2E00C94BE046C017B018A01FC0117824E
:100470001682838181FFCCC1CE0101963C01F60139
:100480009381F70193FD859193FF81917F018823EB
:1004900009F4BAC1853239F493FD859193FF8191B6
:1004A0007F01853229F4B60190E00E942404E7CF51
:1004B000912C212C312CFFE1F315D8F08B3279F0FF
:1004C00038F4803279F08332A1F4232D20611DC0ED
:1004D0008D3261F0803369F4232D216016C0832DA5
:1004E0008260382EE32DE4603E2E2AC0F32DF860A2
:1004F0001DC037FC2DC020ED280F2A3040F08E3271
:10050000B9F436FC81C1232D2064322E19C036FE89
:1005100006C08AE0989E200D1124922E11C0EAE0B8
:100520002E9E200D1124222EF32DF0623F2E08C0A6
:100530008C3621F4832D8068382E02C0883641F431
:10054000F70193FD859193FF81917F018111B3CFD5
:10055000982F9F7D9554933028F40C5F1F4F9FE395
:1005600099830DC0833631F0833771F0833509F0FC
:1005700059C021C0F801808189830E5F1F4F8824F4
:100580008394912C530113C02801F2E04F0E511CAB
:10059000F801A080B18036FE03C0692D70E002C072
:1005A0006FEF7FEFC5010E9419044C018201F32D0A
:1005B000FF773F2E16C0280122E0420E511CF801A1
:1005C000A080B18036FE03C0692D70E002C06FEFDD
:1005D0007FEFC5010E940E044C01F32DF0683F2E01
:1005E000820133FC1BC0822D90E088169906B0F47E
:1005F000B60180E290E00E9424042A94F4CFF50131
:1006000037FC859137FE81915F01B60190E00E9431
:10061000240421102A9421E0821A91088114910463
:1006200071F7E8C0843611F0893641F5F80137FEDC
:1006300007C060817181828193810C5F1F4F08C068
:1006400060817181072E000C880B990B0E5F1F4F84
:10065000F32DFF763F2E97FF09C0909580957095FA
:1006600061957F4F8F4F9F4FF0683F2E2AE030E01B
:10067000A3010E946004882E861845C0853731F496
:10068000232D2F7EB22E2AE030E025C0932D997FB6
:10069000B92E8F36C1F018F4883579F0B5C080379F
:1006A00019F0883721F0B0C0E92FE061BE2EB4FE0A
:1006B0000DC0FB2DF460BF2E09C034FE0AC0292FE7
:1006C0002660B22E06C028E030E005C020E130E010
:1006D00002C020E132E0F801B7FE07C060817181FD
:1006E000828193810C5F1F4F06C06081718180E021
:1006F00090E00E5F1F4FA3010E946004882E8618B1
:10070000FB2DFF773F2E36FE0DC0232D2E7FA22E10
:10071000891458F434FE0BC032FC09C0832D8E7E40
:10072000A82E05C0B82CA32C03C0B82C01C0B92C2E
:10073000A4FE0FC0FE01E80DF11D8081803321F47D
:100740009A2D997EA92E09C0A2FE06C0B394B39437
:1007500004C08A2D867809F0B394A3FC11C0A0FED2
:1007600006C0B21488F4280C922C9B180EC0B21448
:1007700060F4B60180E290E00E942404B394F7CFC5
:10078000B21418F42B1802C0982C212CA4FE10C00F
:10079000B60180E390E00E942404A2FE17C0A1FCF1
:1007A00003C088E790E002C088E590E0B6010CC085
:1007B0008A2D867859F0A1FE02C08BE201C080E24A
:1007C000A7FC8DE2B60190E00E942404891438F45D
:1007D000B60180E390E00E9424049A94F7CF8A94B3
:1007E000F301E80DF11D8081B60190E00E94240420
:1007F0008110F5CF222009F442CEB60180E290E0CC
:100800000E9424042A94F6CFF6018681978102C0C3
:100810008FEF9FEF2B96E2E10C94DA04FC01059038
:10082000615070400110D8F7809590958E0F9F1FF2
:100830000895FC016150704001900110D8F7809537
:1008400090958E0F9F1F08950F931F93CF93DF9363
:10085000FB01238121FD03C08FEF9FEF2CC022FFFE
:1008600016C046815781248135814217530744F4CD
:10087000A081B1819D012F5F3F4F318320838C93F5
:10088000268137812F5F3F4F3783268314C08B012A
:10089000EC01FB010084F185E02D0995892BE1F63F
:1008A000D80116968D919C911797019617969C9357
:1008B0008E931697CE01DF91CF911F910F910895DE
:1008C000FA01AA27283051F1203181F1E8946F9381
:1008D0006E7F6E5F7F4F8F4F9F4FAF4FB1E03ED027
:1008E000B4E03CD0670F781F891F9A1FA11D680FC5
:1008F000791F8A1F911DA11D6A0F711D811D911DF8
:10090000A11D20D009F468943F912AE0269F11246C
:100910003019305D3193DEF6CF010895462F4770D0
:10092000405D4193B3E00FD0C9F7F6CF462F4F702B
:10093000405D4A3318F0495D31FD4052419302D089
:10094000A9F7EACFB4E0A69597958795779567952F
:10095000BA95C9F700976105710508959B01AC012F
:100960000A2E06945795479537952795BA95C9F756
:10097000620F731F841F951FA01D08952F923F9231
:100980004F925F926F927F928F929F92AF92BF929F
:10099000CF92DF92EF92FF920F931F93CF93DF934B
:1009A000CDB7DEB7CA1BDB0B0FB6F894DEBF0FBEA8
:1009B000CDBF09942A88398848885F846E847D84F5
:1009C0008C849B84AA84B984C884DF80EE80FD80F7
:1009D0000C811B81AA81B981CE0FD11D0FB6F8946D
:0E09E000DEBF0FBECDBFED010895F894FFCF2E
:1009EE0000000100020003000400050006000700DD
:1009FE00080009000A000B007072657373206120F5
:100A0E006B65790046696E69736865640025633AA3
:100A1E00202573002A3A6164642C20233A66696E9D
:100A2E00697368002A2A2A2A2A204D454E55202A03
:100A3E002A2A2A2A0025733A20707265737320259C
:100A4E00630057656C636F6D6500746F206F757210
:100A5E002072657374617572616E74003132333455
:100A6E0035363738392A3023426565660000000076
:100A7E00000050697A7A6100000000004B616261EB
:100A8E00620000000000436869636B656E00000041
:100A9E00536F7570000000000000546F6675000003
:100AAE000000000053757368690000000000537465
:100ABE0065616B0000000000536F64610000000070
:100ACE0000002A00000000000000000053616C616D
:100ADE006400000000002300000000000000000081
:00000001FF
