S01200007761697465722D6176722E7372656310
S11300000C942A000C943F000C943F000C943F0085
S11300100C943F000C943F000C943F000C943F0060
S11300200C943F000C943F000C943F000C943F0050
S11300300C943F000C943F000C943F000C943F0040
S11300400C943F000C943F000C943F000C943F0030
S11300500C943F0011241FBECFE5D8E0DEBFCDBF16
S113006011E0A0E6B0E0ECE9FAE002C005900D92E0
S1130070A036B107D9F70E94D3010C944C050C9417
S11300800000CF93DF93CDB7DEB768970FB6F8942F
S1130090DEBF0FBECDBF80EF8ABB8FEF8BBB88E185
S11300A0E0E6F0E0DE01119601900D928A95E1F709
S11300B08BB38F708BBB89B38F708F30C9F789B3C3
S11300C08F708F30E1F39FEE2FED3FEB9BBB89B335
S11300D08F708F3061F42BBB89B38F708F3049F4EC
S11300E03BBB89B38F708F3089F3E2E003C0E0E05B
S11300F001C0E1E08E3041F4F0E0EE0FFF1FEC0FA1
S1130100FD1F818192811EC08D3049F4F0E0339649
S1130110EE0FFF1FEC0FFD1F8181928113C08B3006
S113012049F4F0E03696EE0FFF1FEC0FFD1F8181BE
S1130130928108C0F0E03996EE0FFF1FEC0FFD1F0F
S11301408181928168960FB6F894DEBF0FBECDBF51
S1130150DF91CF91089588BBC298C39A8FE99FE03D
S11301600197F1F700C00000C3980895CF93C82FFA
S1130170807F0E94AB008C2F8295807F0E94AB0011
S1130180CF91089580EC0E94B600089580E80E9403
S1130190B600089581E00E94B600089582E00E94AE
S11301A0B60088E20E94B6008CE00E94B60086E0A9
S11301B00E94B60083E80E94B600089588BBC29AE4
S11301C0C39A8FE99FE00197F1F700C00000C3983C
S11301D00895CF93C82F807F0E94DE008C2F8295D4
S11301E0807F0E94DE00CF910895CF93DF93EC01CE
S11301F08881882331F021960E94E9008991811138
S1130200FBCFDF91CF9108958F929F92AF92BF92CF
S1130210CF92DF92EF92FF920F931F93CF93DF93CE
S1130220CDB7DEB760970FB6F894DEBF0FBECDBF73
S11302300E94CA0088E790E00E94F5002FEF86E74D
S113024091E0215080409040E1F700C000000E94FE
S1130250CA001F9281E38F9387EE90E09F938F9360
S113026089E890E09F938F938E010F5F1F4F1F9338
S11302700F930E946202C8010E94F5000E94C2000E
S11302800F2EFBEDAF2EF0E0BF2EF02D01EF10E0AE
S11302900F2EF1E48F2EF1E09F2EF02D0FB6F8947F
S11302A0DEBF0FBECDBF0F2EF9E8CF2EF0E0DF2E5C
S11302B0F02DCE0101967C0126C01F9280E38F931E
S11302C08BE491E09F938F9389E890E09F938F93C1
S11302D08E010F5F1F4F1F930F930E946202C8018C
S11302E00E94F5009FEFE3EFF1E09150E040F04011
S11302F0E1F700C000000E94C6000FB6F894DEBF0C
S11303000FBECDBF3DC0F50181811F928F931F9316
S11303100F93DF92CF92FF92EF920E946202C70185
S11303200E94F500FFEF23EF81E0F1502040804070
S1130330E1F700C000000E94C6000E94CA00F50157
S113034082811F928F93C8010A969F938F93DF92A5
S1130350CF92FF92EF920E946202C7010E94F500C1
S11303600E94C200F2E0AF0EB11C0C5E1F4F0FB62C
S1130370F894DEBF0FBECDBF8016910621F69DCF47
S113038060960FB6F894DEBF0FBECDBFDF91CF915C
S11303901F910F91FF90EF90DF90CF90BF90AF909F
S11303A09F908F900895CF92DF92EF92FF920F93D8
S11303B01F93CF93DF93CDB7DEB760970FB6F89452
S11303C0DEBF0FBECDBF8FEF87BB0E94CE0086E994
S11303D090E00E94F5000E94C2008EE990E00E9425
S11303E0F5002FEF80E792E0215080409040E1F744
S11303F000C000000E9404010F2EF4ECCF2EF0E0A8
S1130400DF2EF02DCE0101967C010E9441008C016B
S11304100097D9F38930910539F40E94CA008FEA14
S113042090E00E94F500F1CF0B97A9F10E94CA0059
S11304300E94C6009801220F331FC801880F991F1C
S1130440880F991F880F991F820F931F89519F4FFF
S11304509F938F93F801E552FF4F80811F928F93F2
S1130460DF92CF92FF92EF920E946202C7010E9434
S1130470F5000E94C2008BEC90E00E94F5008FE32F
S11304809CE90197F1F700C000000FB6F894DEBFB5
S11304900FBECDBFBACF0E94CA008BEB90E00E9482
S11304A0F50080E090E060960FB6F894DEBF0FBED2
S11304B0CDBFDF91CF911F910F91FF90EF90DF900F
S11304C0CF900895AEE0B0E0E8E6F2E00C942305A6
S11304D00D891E8986E08C831A8309838FEF9FE739
S11304E09E838D83AE01475E5F4F6F89788DCE0109
S11304F001960E948402EF81F885E00FF11F1082BB
S11305002E96E4E00C943F05ABE0B0E0EAE8F2E0BC
S11305100C9415056C017B018A01FC01178216827B
S1130520838181FFCCC1CE0101963C01F601938108
S1130530F70193FD859193FF81917F01882309F44D
S1130540BAC1853239F493FD859193FF81917F017E
S1130550853229F4B60190E00E947B04E7CF912C08
S1130560212C312CFFE1F315D8F08B3279F038F4DB
S1130570803279F08332A1F4232D20611DC08D32A5
S113058061F0803369F4232D216016C0832D8260CD
S1130590382EE32DE4603E2E2AC0F32DF8601DC0F2
S11305A037FC2DC020ED280F2A3040F08E32B9F4EC
S11305B036FC81C1232D2064322E19C036FE06C0BC
S11305C08AE0989E200D1124922E11C0EAE02E9EFE
S11305D0200D1124222EF32DF0623F2E08C08C36FC
S11305E021F4832D8068382E02C0883641F4F70147
S11305F093FD859193FF81917F018111B3CF982F52
S11306009F7D9554933028F40C5F1F4F9FE399838B
S11306100DC0833631F0833771F0833509F059C04A
S113062021C0F801808189830E5F1F4F8824839441
S1130630912C530113C02801F2E04F0E511CF80114
S1130640A080B18036FE03C0692D70E002C06FEF58
S11306507FEFC5010E9470044C018201F32DFF77E6
S11306603F2E16C0280122E0420E511CF801A08042
S1130670B18036FE03C0692D70E002C06FEF7FEFDA
S1130680C5010E9465044C01F32DF0683F2E8201E0
S113069033FC1BC0822D90E088169906B0F4B60195
S11306A080E290E00E947B042A94F4CFF50137FCA9
S11306B0859137FE81915F01B60190E00E947B0431
S11306C021102A9421E0821A91088114910471F76F
S11306D0E8C0843611F0893641F5F80137FE07C0C9
S11306E060817181828193810C5F1F4F08C060819A
S11306F07181072E000C880B990B0E5F1F4FF32D91
S1130700FF763F2E97FF09C090958095709561956F
S11307107F4F8F4F9F4FF0683F2E2AE030E0A301B8
S11307200E94B704882E861845C0853731F4232DDE
S11307302F7EB22E2AE030E025C0932D997FB92E6A
S11307408F36C1F018F4883579F0B5C0803719F0C8
S1130750883721F0B0C0E92FE061BE2EB4FE0DC091
S1130760FB2DF460BF2E09C034FE0AC0292F266079
S1130770B22E06C028E030E005C020E130E002C01F
S113078020E132E0F801B7FE07C060817181828107
S113079093810C5F1F4F06C06081718180E090E0FF
S11307A00E5F1F4FA3010E94B704882E8618FB2DED
S11307B0FF773F2E36FE0DC0232D2E7FA22E8914E7
S11307C058F434FE0BC032FC09C0832D8E7EA82E53
S11307D005C0B82CA32C03C0B82C01C0B92CA4FEAE
S11307E00FC0FE01E80DF11D8081803321F49A2DA4
S11307F0997EA92E09C0A2FE06C0B394B39404C086
S11308008A2D867809F0B394A3FC11C0A0FE06C01B
S1130810B21488F4280C922C9B180EC0B21460F405
S1130820B60180E290E00E947B04B394F7CFB21447
S113083018F42B1802C0982C212CA4FE10C0B60169
S113084080E390E00E947B04A2FE17C0A1FC03C0D9
S113085088E790E002C088E590E0B6010CC08A2DDC
S1130860867859F0A1FE02C08BE201C080E2A7FCA9
S11308708DE2B60190E00E947B04891438F4B6013D
S113088080E390E00E947B049A94F7CF8A94F3016A
S1130890E80DF11D8081B60190E00E947B04811077
S11308A0F5CF222009F442CEB60180E290E00E9406
S11308B07B042A94F6CFF6018681978102C08FEFDC
S11308C09FEF2B96E2E10C943105FC0105906150F9
S11308D070400110D8F7809590958E0F9F1F089552
S11308E0FC016150704001900110D8F780959095FB
S11308F08E0F9F1F08950F931F93CF93DF93FB01D8
S1130900238121FD03C08FEF9FEF2CC022FF16C06F
S113091046815781248135814217530744F4A081CD
S1130920B1819D012F5F3F4F318320838C932681BA
S113093037812F5F3F4F3783268314C08B01EC012F
S1130940FB010084F185E02D0995892BE1F6D8019E
S113095016968D919C911797019617969C938E935A
S11309601697CE01DF91CF911F910F910895FA014F
S1130970AA27283051F1203181F1E8946F936E7FDA
S11309806E5F7F4F8F4F9F4FAF4FB1E03ED0B4E0CB
S11309903CD0670F781F891F9A1FA11D680F791F0C
S11309A08A1F911DA11D6A0F711D811D911DA11D1D
S11309B020D009F468943F912AE0269F112430192D
S11309C0305D3193DEF6CF010895462F4770405DC8
S11309D04193B3E00FD0C9F7F6CF462F4F70405D77
S11309E04A3318F0495D31FD4052419302D0A9F7D2
S11309F0EACFB4E0A6959795879577956795BA95CC
S1130A00C9F700976105710508959B01AC010A2E91
S1130A1006945795479537952795BA95C9F7620F68
S1130A20731F841F951FA01D08952F923F924F920C
S1130A305F926F927F928F929F92AF92BF92CF926A
S1130A40DF92EF92FF920F931F93CF93DF93CDB773
S1130A50DEB7CA1BDB0B0FB6F894DEBF0FBECDBFEB
S1130A6009942A88398848885F846E847D848C84BC
S1130A709B84AA84B984C884DF80EE80FD800C81C5
S1130A801B81AA81B981CE0FD11D0FB6F894DEBFA8
S10F0A900FBECDBFED010895F894FFCF18
S1130A9C000001000200030004000500060007002A
S1130AAC080009000A000B002A2A2A2A2A204D458C
S1130ABC4E55202A2A2A2A2A0025733A2070726558
S1130ACC73732025630057656C636F6D6500746FD9
S1130ADC206F757220726573747572616E74007018
S1130AEC726573732061206B65790046696E697356
S1130AFC6865640025633A202573002A3A616464AE
S1130B0C2C20233A66696E697368003132333435AC
S1130B1C363738392A3023426565660000000000F8
S1130B2C0050697A7A6100000000004B61626162D6
S1130B3C0000000000436869636B656E000000539D
S1130B4C6F7570000000000000546F6675000000A3
S1130B5C000000537573686900000000005374654D
S1130B6C616B0000000000536F6461000000000022
S1130B7C002A00000000000000000053616C616456
S1130B8C0000000000230000000000000000000032
S9030000FC
