S01200007761697465722D6176722E7372656310
S11300000C942A000C9481010C9447000C94470032
S11300100C9447000C9447000C9447000C94470040
S11300200C9447000C9447000C9447000C94470030
S11300300C9447000C9447000C9447000C94470020
S11300400C9447000C9447000C9447000C94470010
S11300500C94470011241FBECFE5D8E0DEBFCDBF0E
S113006011E0A0E6B0E0E8E7FAE002C005900D92E6
S1130070A036B107D9F721E0A0E6B1E001C01D9296
S1130080A037B207E1F70E9446010C943A050C949C
S1130090000011B880E280B9089584E986BF06B6ED
S11300A004FCFDCF08951F93CF93DF93182FC4EA68
S11300B0D4E8C6BF06B607FEFDCF81B1887F88307D
S11300C0C1F713B9D6BF06B607FEFDCF81B1887F4D
S11300D0883119F00E944D00ECCFDF91CF911F9130
S11300E0089583B984E886BF06B607FEFDCF81B1C3
S11300F0887F883221F0803321F082E0089580E007
S1130100089581E00895CF93DF93CDB7DEB7689764
S11301100FB6F894DEBF0FBECDBF80EF8ABB8FEE63
S11301208BBB88E1E0E6F0E0DE01119601900D92D0
S11301308A95E1F78BB38F708BBB89B38F708F3047
S1130140C9F789B38F708F30E1F39FEE2FED3FEB4A
S11301509BBB89B38F708F3061F42BBB89B38F70D5
S11301608F3049F43BBB89B38F708F3089F3E2E061
S113017003C0E0E001C0E1E08E3041F4F0E0EE0FB6
S1130180FF1FEC0FFD1F818192811EC08D3049F449
S1130190F0E03396EE0FFF1FEC0FFD1F818192817B
S11301A013C08B3049F4F0E03696EE0FFF1FEC0FCE
S11301B0FD1F8181928108C0F0E03996EE0FFF1F88
S11301C0EC0FFD1F8181928168960FB6F894DEBF13
S11301D00FBECDBFDF91CF91089588BBC298C39A5B
S11301E08FEC97E00197F1F700C00000C3980895E1
S11301F0CF93C82F807F0E94ED008C2F8295807F43
S11302000E94ED00CF91089580EC0E94F8000895BB
S113021080E80E94F800089581E00E94F8000895A3
S113022082E00E94F80088E20E94F8008CE00E94BC
S1130230F80086E00E94F80083E80E94F800089520
S113024088BBC29AC39A8FEC97E00197F1F700C07C
S11302500000C3980895CF93C82F807F0E94200187
S11302608C2F8295807F0E942001CF910895CF9397
S1130270DF93EC018881882331F021960E942B01C1
S113028089918111FBCFDF91CF9108958FEF87BBC7
S113029084BB85BB0E9449000E94100188E790E05E
S11302A00E9437010E94040180E890E00E94370117
S11302B02FE788E391E0215080409040E1F700C0AF
S11302C000000E940C0178942FE788E391E021500C
S11302D080409040E1F700C000000E940C01C0E49F
S11302E00E94830090936F0180936E01892B29F003
S11302F080916C01811101C0CBBF1BBE10926C01B7
S1130300EFCF1F920F920FB60F921124CF92DF926C
S1130310EF92FF920F931F932F933F934F935F930B
S11303206F937F938F939F93AF93BF93EF93FF93B9
S1130330CF93DF93CDB7DEB76097DEBFCDBF80919B
S11303406E0190916F018930910549F40E940C016E
S113035082E990E00E94370110926D0182C00B97F0
S1130360C9F50E940C018EE990E00E94370180E2F9
S11303700E94530000E611E00F2EFCEDEF2EF0E09A
S1130380FF2EF02D0F2EFCE6CF2EF1E0DF2EF02D08
S1130390F80181918F01882369F0F70180810E941F
S11303A07100FFE728E381E0F15020408040E1F74D
S11303B000C000009FEFE91AF90A0C151D0541F76A
S11303C081E088BBEFE3FCE93197F1F700C000005E
S11303D018BA47C080916D01811143C00E940C017D
S11303E00E94080120916E0130916F01A901440F10
S11303F0551FC901880F991F880F991F880F991FCE
S1130400840F951F88519F4F9F938F93F901E45256
S1130410FF4F80811F928F9387EA90E09F938F9381
S11304208E010F5F1F4F1F930F930E945002C8014C
S11304300E9437010E9404018EEA90E00E94370175
S11304400E940801E0916E01F0916F01E05AFE4FA5
S113045081E0808380936D010FB6F894DEBF0FBEF8
S1130460CDBF60960FB6F894DEBF0FBECDBFDF914F
S1130470CF91FF91EF91BF91AF919F918F917F9118
S11304806F915F914F913F912F911F910F91FF9029
S1130490EF90DF90CF900F900FBE0F901F901895A4
S11304A0AEE0B0E0E6E5F2E00C9411050D891E899A
S11304B086E08C831A8309838FEF9FE79E838D8365
S11304C0AE01475E5F4F6F89788DCE0101960E9421
S11304D07202EF81F885E00FF11F10822E96E4E09E
S11304E00C942D05ABE0B0E0E8E7F2E00C940305D2
S11304F06C017B018A01FC0117821682838181FFD2
S1130500CCC1CE0101963C01F6019381F70193FD24
S1130510859193FF81917F01882309F4BAC18532C3
S113052039F493FD859193FF81917F01853229F4FC
S1130530B60190E00E946904E7CF912C212C312C64
S1130540FFE1F315D8F08B3279F038F4803279F08A
S11305508332A1F4232D20611DC08D3261F08033DC
S113056069F4232D216016C0832D8260382EE32D7B
S1130570E4603E2E2AC0F32DF8601DC037FC2DC068
S113058020ED280F2A3040F08E32B9F436FC81C1B8
S1130590232D2064322E19C036FE06C08AE0989EB0
S11305A0200D1124922E11C0EAE02E9E200D11245C
S11305B0222EF32DF0623F2E08C08C3621F4832DB9
S11305C08068382E02C0883641F4F70193FD859186
S11305D093FF81917F018111B3CF982F9F7D955413
S11305E0933028F40C5F1F4F9FE399830DC083362B
S11305F031F0833771F0833509F059C021C0F80117
S1130600808189830E5F1F4F88248394912C53012A
S113061013C02801F2E04F0E511CF801A080B180F4
S113062036FE03C0692D70E002C06FEF7FEFC50195
S11306300E945E044C018201F32DFF773F2E16C009
S1130640280122E0420E511CF801A080B18036FE40
S113065003C0692D70E002C06FEF7FEFC5010E94F7
S113066053044C01F32DF0683F2E820133FC1BC070
S1130670822D90E088169906B0F4B60180E290E0ED
S11306800E9469042A94F4CFF50137FC859137FE62
S113069081915F01B60190E00E94690421102A94BF
S11306A021E0821A91088114910471F7E8C084361C
S11306B011F0893641F5F80137FE07C06081718178
S11306C0828193810C5F1F4F08C060817181072E66
S11306D0000C880B990B0E5F1F4FF32DFF763F2EF6
S11306E097FF09C090958095709561957F4F8F4FC6
S11306F09F4FF0683F2E2AE030E0A3010E94A5043A
S1130700882E861845C0853731F4232D2F7EB22ECE
S11307102AE030E025C0932D997FB92E8F36C1F0A1
S113072018F4883579F0B5C0803719F0883721F08E
S1130730B0C0E92FE061BE2EB4FE0DC0FB2DF46005
S1130740BF2E09C034FE0AC0292F2660B22E06C06F
S113075028E030E005C020E130E002C020E132E0D2
S1130760F801B7FE07C060817181828193810C5FBB
S11307701F4F06C06081718180E090E00E5F1F4FC3
S1130780A3010E94A504882E8618FB2DFF773F2E17
S113079036FE0DC0232D2E7FA22E891458F434FE6C
S11307A00BC032FC09C0832D8E7EA82E05C0B82C48
S11307B0A32C03C0B82C01C0B92CA4FE0FC0FE01A9
S11307C0E80DF11D8081803321F49A2D997EA92EA4
S11307D009C0A2FE06C0B394B39404C08A2D8678DF
S11307E009F0B394A3FC11C0A0FE06C0B21488F4AF
S11307F0280C922C9B180EC0B21460F4B60180E24F
S113080090E00E946904B394F7CFB21418F42B1843
S113081002C0982C212CA4FE10C0B60180E390E005
S11308200E946904A2FE17C0A1FC03C088E790E0FF
S113083002C088E590E0B6010CC08A2D867859F094
S1130840A1FE02C08BE201C080E2A7FC8DE2B601EA
S113085090E00E946904891438F4B60180E390E0C2
S11308600E9469049A94F7CF8A94F301E80DF11D6C
S11308708081B60190E00E9469048110F5CF2220A6
S113088009F442CEB60180E290E00E9469042A9401
S1130890F6CFF6018681978102C08FEF9FEF2B96EA
S11308A0E2E10C941F05FC010590615070400110B9
S11308B0D8F7809590958E0F9F1F0895FC01615085
S11308C0704001900110D8F7809590958E0F9F1F6E
S11308D008950F931F93CF93DF93FB01238121FD91
S11308E003C08FEF9FEF2CC022FF16C046815781B3
S11308F0248135814217530744F4A081B1819D01BD
S11309002F5F3F4F318320838C93268137812F5F64
S11309103F4F3783268314C08B01EC01FB01008415
S1130920F185E02D0995892BE1F6D80116968D9174
S11309309C911797019617969C938E931697CE01C8
S1130940DF91CF911F910F910895FA01AA272830C2
S113095051F1203181F1E8946F936E7F6E5F7F4F88
S11309608F4F9F4FAF4FB1E03ED0B4E03CD0670F04
S1130970781F891F9A1FA11D680F791F8A1F911D57
S1130980A11D6A0F711D811D911DA11D20D009F4A7
S113099068943F912AE0269F11243019305D3193E9
S11309A0DEF6CF010895462F4770405D4193B3E0D2
S11309B00FD0C9F7F6CF462F4F70405D4A3318F079
S11309C0495D31FD4052419302D0A9F7EACFB4E02A
S11309D0A6959795879577956795BA95C9F70097E2
S11309E06105710508959B01AC010A2E0694579583
S11309F0479537952795BA95C9F7620F731F841FDA
S1130A00951FA01D08952F923F924F925F926F926F
S1130A107F928F929F92AF92BF92CF92DF92EF928A
S1130A20FF920F931F93CF93DF93CDB7DEB7CA1B0B
S1130A30DB0B0FB6F894DEBF0FBECDBF09942A8836
S1130A40398848885F846E847D848C849B84AA84DE
S1130A50B984C884DF80EE80FD800C811B81AA816B
S1130A60B981CE0FD11D0FB6F894DEBF0FBECDBF36
S10B0A70ED010895F894FFCF95
S1130A78000001000200030004000500060007004E
S1130A88080009000A000B0057656C636F6D650068
S1130A98746F206F75722072657374617572616EFC
S1130AA8740070726573732061206B657900466900
S1130AB86E69736865640025633A202573002A3AD1
S1130AC86164642C20233A66696E697368002A2A73
S1130AD82A2A2A204D454E55202A2A2A2A2A002520
S1130AE8733A20707265737320256300313233348E
S1130AF835363738392A30234265656600000000E8
S1130B08000050697A7A6100000000004B6162615C
S1130B18620000000000436869636B656E000000B2
S1130B28536F7570000000000000546F6675000074
S1130B3800000000537573686900000000005374D6
S1130B4865616B0000000000536F646100000000E1
S1130B5800002A00000000000000000053616C61DE
S1130B6864000000000023000000000000000000F2
S9030000FC
